:020000040800F2
:10000000000002200103000851030008510300080A
:1000100051030008510300085103000800000000CC
:100020000000000000000000000000005103000874
:1000300051030008000000005103000851030008AC
:100040005103000851030008510300085103000840
:100050005103000851030008510300085103000830
:100060005103000851030008510300085103000820
:100070005103000851030008510300085103000810
:100080005103000851030008510300085103000800
:1000900051030008510300085103000851030008F0
:1000A00051030008510300085103000851030008E0
:1000B00051030008510300085103000851030008D0
:1000C00051030008510300085103000851030008C0
:1000D00051030008510300085103000851030008B0
:1000E00051030008510300085103000851030008A0
:1000F0005103000851030008510300085103000890
:10010000510300085103000851030008510300087F
:10011000510300085103000851030008510300086F
:10012000510300085103000851030008510300085F
:100130005103000800000000000000005103000807
:10014000510300085103000851030008510300083F
:10015000510300085103000851030008510300082F
:10016000510300085103000851030008510300081F
:10017000510300085103000851030008000000006B
:100180000000000051030008000000000000000013
:1001900051030008000000000000000051030008A7
:1001A00000000000000000000000000051030008F3
:1001B00051030008510300085103000851030008CF
:0401C00051030008DF
:1001C4000348044B834202D0034B03B118477047E2
:1001D400000000200000002000000000054806493F
:1001E400091A891001EBD171491002D0034B03B1F4
:1001F40018477047000000200000002000000000A5
:1002040010B5064C237843B9FFF7DAFF044B13B15A
:100214000448AFF300800123237010BD00000020C8
:10022400000000009C03000808B5054B1BB10549FC
:100234000548AFF30080BDE80840FFF7CFBF00BF1B
:1002440000000000040000209C03000880B400AFFC
:10025400084BD3F88830074A43F47003C2F8883057
:10026400044B4FF000629A6000BFBD465DF8047B0A
:10027400704700BF00ED00E080B483B000AF1C4BBA
:100284001B6B1B4A43F0010313631A4B4FF4806248
:100294001A60184B4FF440629A60174B3B60154B41
:1002A4009B69144A43F02003936100237B607B68BD
:1002B4005A1C7A603A689A428CBF01230023DBB24D
:1002C400002B00D0F3E70B4B9B690A4A43F400135D
:1002D400936100237B607B685A1C7A603A689A4277
:1002E4008CBF01230023DBB2002BD8D0F3E700BF7F
:1002F400003802400000024040420F00DFF834D0D2
:10030400002103E00C4B5B58435004310B480C4B69
:1003140042189A42F6D30B4A02E0002342F8043B07
:10032400094B9A42F9D3FFF791FF00F011F8FFF758
:10033400A3FF704700000220BC0300080000002057
:1003440000000020000000201C000020FEE7000048
:1003540070B50D4D0D4C641BA4100026A64209D1A6
:100364000B4D0C4C00F018F8641BA4100026A64298
:1003740005D170BD55F8043B98470136EEE755F8B2
:10038400043B98470136F2E7B4030008B4030008BD
:10039400B4030008B8030008F8B500BFF8BC08BCF3
:1003A4009E467047F8B500BFF8BC08BC9E4670472F
:0403B4002D0200080E
:0403B8000502000832
:0400000508000301EB
:00000001FF
